:020000040000FA
:10200000B00200106D210000752100007721000052
:10201000792100007B2100007D21000000000000EC
:102020000000000000000000000000007F21000010
:1020300081210000000000008321000085210000B4
:1020400087210000872100008721000087210000F0
:1020500087210000872100008721000087210000E0
:1020600087210000872100008721000087210000D0
:1020700087210000872100008721000087210000C0
:1020800087210000872100008721000087210000B0
:1020900087210000872100008721000087210000A0
:1020A0008721000087210000872100008721000090
:1020B0008721000087210000872100008721000080
:1020C00087210000872100008721000000F002F82E
:1020D00000F03AF80AA090E8000C82448344AAF188
:1020E0000107DA4501D100F02FF8AFF2090EBAE886
:1020F0000F0013F0010F18BFFB1A43F0010318473C
:10210000F8A0000018A10000103A24BF78C878C1D8
:10211000FAD8520724BF30C830C144BF04680C60ED
:10212000704700000023002400250026103A28BF35
:1021300078C1FBD8520728BF30C148BF0B60704739
:102140001FB51FBD10B510BD01F0FDFF1146FFF713
:10215000F7FF00F063F902F01BF803B4FFF7F2FF9A
:1021600003BC02F01FF8000000BF70470948804719
:1021700009480047FEE7FEE7FEE7FEE7FEE7FEE769
:10218000FEE7FEE7FEE7FEE704480549034A054B84
:1021900070470000DB220000CD200000B0000010DE
:1021A000B0020010B000001095480068C0F3016054
:1021B000032860D192488430006800F0030030B1F9
:1021C000012820D0022839D0032853D100E000BFD5
:1021D0008B480068C0F30E00401C4000894948430A
:1021E00087498839D1F88810C1F30741491CB0FBF1
:1021F000F1F183487C300068C0B2401CB1FBF0F0C4
:102200008149086036E07E480068C0F30E00401C3B
:1022100040007E4948437A498839D1F88810C1F393
:102220000741491CB0FBF1F175487C300068C0B231
:10223000401CB1FBF0F0744908601BE07048006876
:10224000C0F30E00401C40004FF4FA4148436C4973
:102250008839D1F88810C1F30741491CB0FBF1F16E
:1022600067487C300068C0B2401CB1FBF0F06649A2
:10227000086000BF30E062488430006800F003006E
:1022800030B1012810D0022819D0032823D100E052
:1022900000BF5B487C300068C0B2401C5949B1FBAC
:1022A000F0F05949086016E055487C300068C0B22B
:1022B000401C5649B1FBF0F0534908600BE0504810
:1022C0007C300068C0B2401C4FF4FA41B1FBF0F022
:1022D0004D49086000BF00BF704720204C4908608E
:1022E00000BF4B48006800F040000028F9D00320F0
:1022F00043497C310860012041498839C1F80C010B
:1023000044483F49091F0860AA203D49091D08604B
:102310005520086001203A4908390860AA20384948
:10232000091D0860552036498839C1F88C0000BF66
:102330003348006800F080600028F9D0032030495D
:1023400008390860AA202E498839C1F88C00552028
:102350002B49091D086000BF2948006800F0407043
:102360000028F9D0232026491C310860AA202449DE
:102370008839C1F8AC00552021492431086001207A
:102380001F4918310860AA201D49243108605520D2
:102390001B498839C1F8AC0000BF194820300068DB
:1023A00000F480600028F8D0032015491831086037
:1023B000AA2013498839C1F8AC00552010492431AE
:1023C000086000BF0E482030006800F4407000280C
:1023D000F8D000200E490831086009498839C1F851
:1023E000AC010D4806493C310860002008492831FD
:1023F000086043F23A0002498839086070470000DB
:1024000088C00F4000093D0000000010001BB7000D
:10241000A0C10F4063000500DE8728048CB018229D
:102420002AA106A801F033FE9125FFF756FF4FF4CD
:102430001652002103A801F0ECFE02A801F098FF5B
:1024400001AC204601F094FF0446204600F06CFDEC
:1024500000BF4FF6FF7102A800F0A9FC4FF6FF7114
:1024600002A801F0F0F81F2102A801F0E9F82B46BC
:1024700006AA1CA102A800F0E4FC21A101A801F019
:1024800005FD03AC207818B9204600F0DEF815E011
:102490002078012803D1204600F0E2F80EE02078F1
:1024A000022803D1204600F0E6F807E02078032850
:1024B00003D1204600F0EAF800E0512006463246FB
:1024C0001AA102A800F0BDFC00BFFEE7496E20542F
:1024D0006865206E616D65204F6620476F642E2E03
:1024E0002E210000737472696E67206973203A2090
:1024F000257320616E6420696E7420613D2569003A
:102500000A2020202020D8B3D984D8A7D98520D864
:10251000A8D98720D8AED8AFD8A7D98A20D985D94D
:1025200087D8B1D8A8D8A7D9862000002563000095
:10253000B1490968B14AC2F8A8111146D1F8C410CE
:1025400041F00801AD4AC43211608321AC4A1173D5
:10255000017A1170002111711146097B21F080016F
:10256000117307211172A749096841F05001A54A6A
:1025700011607047A0490968A04AC2F8A811114625
:10258000D1F8C41041F010019C4AC432116083217B
:102590009D4A1173017A1170002111711146097B56
:1025A00021F080011173072111729649096841F0E9
:1025B0008041944A11601146096841F0010111609F
:1025C00070478D4909688D4AC2F8A8111146D1F8A3
:1025D000C41041F08071894AC432116083218B4A52
:1025E0001173017A1170002111711146097B21F0DC
:1025F00080011173072111728249096841F4A00119
:10260000804A116070477C4909687C4AC2F8A81169
:102610001146D1F8C41041F00071784AC4321160FB
:1026200083217B4A1173017A1170002111711146C7
:10263000097B21F08001117307211172714909682A
:1026400041F00A016F4A11607047014600BF6C48B3
:10265000007D00F001000028F9D06948007870473B
:10266000014600BF6848007D00F001000028F9D055
:10267000654800787047014600BF6448007D00F05F
:1026800001000028F9D0614800787047014600BF7A
:102690005F48007D00F001000028F9D05C48007818
:1026A000704700BF564A127D02F02002002AF9D07E
:1026B000534A11708022524B30331A70704700BF5A
:1026C000514A127D02F02002002AF9D04E4A1170C0
:1026D00080224D4B30331A70704700BF4B4A127D39
:1026E00002F02002002AF9D0484A11708022474B9C
:1026F00030331A70704700BF454A127D02F0200245
:10270000002AF9D0424A11708022414B30331A70AE
:1027100070470FB4F0B591B00646179820B9002065
:1027200011B0F0BC5DF814FB18AD00245DE0179803
:10273000005D252851D1601C1799085C692823D0B9
:1027400006DC582832D0632807D0642841D11AE02B
:1027500073280BD078283CD129E02D1D15F8047C76
:102760003946304601F033FD641C34E02D1D55F828
:10277000047C394601A800F0ABF801A9304601F00D
:1027800018FD641C27E000BF2D1D55F8047C202196
:1027900009A801F0AEFC09AA0A21384600F084F825
:1027A00009A9304601F005FD641C14E000BF2D1D91
:1027B00055F8047C202109A801F09BFC09AA1021EE
:1027C000384600F071F809A9304601F0F2FC641CAB
:1027D00001E00120A4E700BF05E01798015D304645
:1027E00001F0F5FC00BF00BF641C179800F07BF8F7
:1027F000A0429CD8204693E7A8C10F4000C00F40DC
:1028000000C0004000C002400000014000800940BC
:1028100000C00940F0B506460C4F3968C1F30E07F9
:102820007A1CC1F307477B1C02EB4207FF0097FBB2
:10283000F3F4064F883FD7F804717D1C94FBF5F73D
:10284000DFF80CC007FB0CF0F0BD000088C00F40A3
:1028500040420F00F0B503460020002400250BB1D4
:10286000102904D93026167000265670F0BD0AE0F3
:10287000B3FBF1F601FB16362E4FBE5D2E4F3E54D4
:10288000401CB3FBF1F3002BF2D10546401E00249F
:1028900004E0294E365C1655401E641CAC42F8DB41
:1028A0000026165500BFE1E770B504460E461546F2
:1028B000102E00D970BD002C03DA2D2005F8010B75
:1028C00064422A4631462046FFF7C4FF00BFF1E7C5
:1028D00010B50246104600BF11F8014B02F8014B3B
:1028E000002CF9D110BD0146002000BF0246401C5B
:1028F0008A5C002AFAD1704730B50C46034604E0E2
:1029000014F8015B03F8015B521E002AF8D130BDB8
:1029100010B5034601E0521E9954002AFBD110BDA8
:1029200010B5034602E023F8021B521E002AFAD11A
:1029300010BD0000040000102C0000102DE9F0472D
:10294000024611B90020BDE8F087B1F80CC0CF896C
:10295000624501DBBA4201DD0020F4E700238E6A04
:102960000EB90020EFE7B4680CB90020EBE70023B4
:10297000FE48B0F80680002514E034F8259004EBFA
:102980008500B0F802A009EB0A00904205DDA2EB39
:102990000900184483B21846D5E703EB0A0083B256
:1029A000681C85B24545E8DB0020CCE7F04800789C
:1029B0007047F0480088704770B50446EE480068DC
:1029C00040F4FF00EC4908600846006840F47F606E
:1029D0000860250A0846C06940F4FF00C86108463F
:1029E000806940EAC5308861FFF7BEFBE5B2E24886
:1029F000C06940F47F60E049C8610846806940EAE8
:102A000005108861FFF7B0FB012070BD10B50446CA
:102A1000D948C06D40F40070D749C8650846806D3C
:102A200040F4006088652046FFF7C6FFD248C06DBD
:102A300040F48060D049C865FFF796FBCE48806DB2
:102A400040F48060CC49886510BD10B50446CA4882
:102A5000806D40F40070C84988650846806D40F478
:102A6000006088652046FFF7A7FFC348C06D40F4AB
:102A70008060C149C865FFF777FBBF48806D40F4AF
:102A80008060BD49886510BD00BF0A00A1F1010149
:102A9000FBD17047800400BF0100A0F10100FBD111
:102AA000704730B50346012000E048431400A2F10E
:102AB0000105EAB2F9D130BD70B506460D4614469F
:102AC000AE48008848F6991188420BD0AB48008880
:102AD00049F61911884205D0A848008848F689119E
:102AE000884208D129464E2001F02AFC21464F2079
:102AF00001F026FC07E02946202001F021FC2146B8
:102B0000212001F01DFC70BD10B5044600215020AD
:102B100001F016FCEF21512001F012FC002152209F
:102B200001F00EFC40F23F11532001F009FC10BDF2
:102B30002DE9F04106460C4617461D463046FFF784
:102B4000E3FFE1B23A463046FFF7B6FF8A48C06D70
:102B500040F480708849C8652220FFF757FF01F0D4
:102B6000AFFB284601F08CFB01F0A0FBBDE8F08133
:102B700010B504462220FFF749FF10BD70B504468A
:102B800000257D48C06D40F480707B49C865E0B287
:102B9000FFF73CFF01F09EFB05467748806D40F44F
:102BA000807075498865284670BD71480078083086
:102BB0006F49087008460078F02807D16D480088F2
:102BC00010306C490880002069490870704770B562
:102BD00005460C4616462846FFF796FFE1B23246F8
:102BE0002846FFF769FF6448C06D40F48070624971
:102BF000C8652220FFF70AFF01F062FB60480088E9
:102C000001F03EFB01F052FB70BD2DE9F34F81B0A6
:102C10000F4610254FF0000B554890F8009055488E
:102C2000B0F800A052480078E82804DC5148008839
:102C3000B0F5987F01DDBDE8FE8F4D48017850204A
:102C400001F07EFB05EBD5704010401E484A009510
:102C50001278104481B2512001F072FB454801887E
:102C6000522001F06DFB434800882844401E81B289
:102C7000532001F065FB3F4802883D4801780198E8
:102C8000FFF71AFF0198FFF773FFA7F12000C7B203
:102C9000BBF1000F38D1002433E00C2D07D107EB36
:102CA0004700384901EB800010F8048004E0364802
:102CB00000EB071010F8048000261BE008F001006C
:102CC00050B10AEB040082B209EB06012C480388DC
:102CD0000198FFF72DFF09E00AEB040082B209EB2F
:102CE00006012A4803880198FFF722FF4FEA680887
:102CF000701CC6B205EBD571B6EB610FDEDB601C54
:102D0000C4B2AC42C9DB2AE0002426E00C2D07D176
:102D100007EB47001B4901EB800010F8048004E03A
:102D2000194800EB071010F8048000260EE008F0A8
:102D3000010038B10AEB040082B209EB06010198E8
:102D4000FFF745FF4FEA6808701CC6B205EBD57166
:102D5000B6EB610FEBDB601CC4B2AC42D6DB0021EA
:102D6000502001F0EDFAEF21512011E0BCBA000033
:102D70001A0000101C00001000C0092014000010F0
:102D800016000010806D0000F471000018000010A3
:102D900001F0D6FA0021522001F0D2FA40F23F11A0
:102DA000532001F0CDFAFFF700FF00BF43E770B5F5
:102DB00006460C463046FFF7A7FE00221146304675
:102DC000FFF77AFEFE48C06D40F48070FC49C8658C
:102DD0002220FFF71BFE01F073FA002503E02046D6
:102DE00001F04EFA6D1CB5F5963FF8D301F05EFA8E
:102DF00070BD70B505460C461FE0F2480078E82823
:102E000007DD0020EF490870EF4800881030EE49D8
:102E10000880ED480088B0F5987F09DD0020E94979
:102E20000870E9490880E94801882846FFF7BFFF94
:102E300021782846FFF7E9FE641C20780028DCD1C1
:102E400070BD0FB4F0B591B00646179820B90020B8
:102E500011B0F0BC5DF814FB18AD00245DE01798CC
:102E6000005D252851D1601C1799085C692823D082
:102E700006DC582832D0632807D0642841D11AE0F4
:102E800073280BD078283CD129E02D1D15F8047C3F
:102E900039463046FFF7B9FE641C34E02D1D55F865
:102EA000047C394601A8FFF713FD01A93046FFF75E
:102EB000A0FF641C27E000BF2D1D55F8047C2021D5
:102EC00009A801F016F909AA0A213846FFF7ECFC17
:102ED00009A93046FFF78DFF641C14E000BF2D1DCB
:102EE00055F8047C202109A801F003F909AA102152
:102EF0003846FFF7D9FC09A93046FFF77AFF641C72
:102F000001E00120A4E700BF05E01798015D30460D
:102F1000FFF77BFE00BF00BF641C1798FFF7E3FCC0
:102F2000A0429CD8204693E710B50446A448006808
:102F300040F4FF00A24908600846006840F47F6042
:102F400008600846006C40F43C5008644FF43C5064
:102F500088650846C06D40F40050C8650520FFF73D
:102F600099FD9748806D40F4005095498865002090
:102F7000FFF704FE964908800846008849F225318B
:102F8000884204D092480088C91C88427ED1102112
:102F9000E72001F0D5F90121002001F0D1F94FF42B
:102FA0008071012001F0CCF94FF4E061022001F0C2
:102FB000C7F941F23001032001F0C2F900210420D9
:102FC00001F0BEF940F20721082001F0B9F9002113
:102FD000092001F0B5F900210A2001F0B1F9012121
:102FE0000C2001F0ADF900210D2001F0A9F900211C
:102FF0000F2001F0A5F90021102001F0A1F907210F
:10300000112001F09DF90021122001F099F9002111
:10301000132001F095F90520FFF73CFD41F2905196
:10302000102001F08DF940F22721112001F088F9DC
:103030000520FFF72FFD9C21122001F081F90520CA
:10304000FFF728FD4FF4C851132001F079F923212F
:10305000292001F075F90E212B2001F071F90520CE
:10306000FFF718FD0021202001F06AF940F23F111E
:10307000212001F065F90520FFF70CFD0721302024
:1030800001F05EF940F20771312000E086E001F0C6
:1030900057F90621322001F053F940F2047135202E
:1030A00001F04EF941F60471362001F049F904218E
:1030B000372001F045F90021382001F041F940F2B4
:1030C0000671392001F03CF940F201713C2001F019
:1030D00037F90F213D2001F033F90520FFF7DAFC25
:1030E0000021502001F02CF9EF21512001F028F9A6
:1030F0000021522001F024F940F23F11532001F049
:103100001FF94FF42741602001F01AF901216120D5
:1031100001F016F900216A2001F012F90021802047
:1031200001F00EF90021812001F00AF9002182202E
:1031300001F006F90021832001F002F9002184202A
:1031400001F0FEF80021852001F0FAF8102190200E
:1031500001F0F6F80021922001F0F2F8032193200B
:1031600001F0EEF84FF48871952001F0E9F80021A4
:10317000972001F0E5F80021982001F0E1F840F2F5
:103180003311072001F0DCF80021202001F0D8F8ED
:1031900040F23F11212001F0D3F831E20C480088C1
:1031A00049F22031884204D009480088B0F5134F15
:1031B0007ED10021084601F0C3F84FF4807109E088
:1031C00000C009201A0000101C0000101800001098
:1031D00014000010012001F0B3F84FF4E061022068
:1031E00001F0AEF841F23001032001F0A9F800210E
:1031F000042001F0A5F840F20221082001F0A0F817
:103200000021092001F09CF800210A2001F098F823
:1032100001210C2001F094F800210D2001F090F81C
:1032200000210F2001F08CF80520FFF733FC40F25D
:103230000111072001F084F80520FFF72BFC4FF463
:103240008651102001F07CF80721112001F078F858
:103250004FF48871122001F073F84FF4306113209D
:1032600001F06EF80021292001F06AF844F2100103
:103270002B2001F065F80021502001F061F8EF21CA
:10328000512001F05DF80021522001F059F840F280
:103290003F11532001F054F84FF41C51602001F00D
:1032A0004FF80121612001F04BF800216A2000E075
:1032B00038E001F045F80021802001F041F80021BC
:1032C000812001F03DF80021822001F039F8002131
:1032D000832001F035F80021842001F031F800212D
:1032E000852001F02DF81021902001F029F800210F
:1032F000922001F025F80121932001F021F84FF4EC
:103300008871952001F01CF80021972001F018F831
:103310000021982001F014F840F27311072001F009
:103320000FF86DE1FC48008848F6991188427CD17D
:103330000121002001F004F843F63F31012000F0A4
:10334000FFFF4FF4C061022000F0FAFF07210C20BC
:1033500000F0F6FF06210D2000F0F2FF4FF4485177
:103360000E2000F0EDFFBB211E2000F0E9FF46F625
:103370006421032000F0E4FF00210F2000F0E0FFB3
:103380004FF46F41442000F0DBFF0021452000F0A6
:10339000D7FF40F23F11462000F0D2FF002130203D
:1033A00000F0CEFF40F20671312000F0C9FF40F27C
:1033B0000621322000F0C4FF4FF44071332000F0AA
:1033C000BFFF0221342000F0BBFF0021352000F0B8
:1033D000B7FF40F20771362000F0B2FF4FF40071E2
:1033E000372000F0ADFF40F608113A2000F0A8FFAA
:1033F00040F60D713B2000F0A3FF0621282000F0CD
:103400009FFF41F2EB212F2000F09AFF4FF4E041A3
:10341000262000F095FF4BF2E301202000F090FF02
:103420004421272000F08CFF00E015E047F64561BD
:103430002E2000F085FF0021102000F081FF0820E1
:10344000FFF728FB46F67001112000F079FF3321C9
:10345000072000F075FFD3E0AF48008848F68911D7
:103460008842F8D12121072000F06AFF01210020C5
:1034700000F066FF2321072000F062FF00211020EA
:1034800000F05EFF0520FFF705FB3321072000F069
:1034900057FF46F27001112000F052FF4FF4C06157
:1034A000022000F04DFF40F60401032000F048FF29
:1034B00000210C2000F044FF40F608010D2000F030
:1034C0003FFF4FF424510E2000F03AFFB8211E2098
:1034D00000F036FF42F63F31012000F031FF0021BD
:1034E000102000F02DFF0021052000F029FF002111
:1034F000062000F025FF4EF61C71162000F020FF7C
:103500000321172000F01CFF40F23321072000F0B8
:1035100017FF4FF4E0710B2000F012FF00210F2085
:1035200000F00EFF0021412000F00AFF00214220A0
:1035300000F006FF0021482000F002FF40F23F119A
:10354000492000F0FDFE00214A2000F0F9FE002194
:103550004B2000F0F5FE4FF46F41442000F0F0FEE8
:103560000021452000F0ECFE40F23F11462000F023
:10357000E7FE40F20771302000F0E2FE4FF40171E7
:10358000312000F0DDFE4FF40171322000F0D8FE52
:1035900040F20251332000F0D3FE40F207513420B4
:1035A00000F0CEFE4FF40171352000F0C9FE4FF45B
:1035B0000171362000F0C4FE40F20251372000F0C5
:1035C000BFFE40F202313A2000F0BAFE40F2023172
:1035D0003B2000F0B5FE0021232000F0B1FE0021C9
:1035E000242000F0ADFE4FF40041252000F0A8FE9D
:1035F00000214F2000F0A4FE00214E2000F0A0FE8C
:1036000010BD70B506460C461546AAB2C4F13F007F
:10361000C1B23046FFF750FA4048C06D40F48070A8
:103620003E49C8652220FFF7F1F93D480088FFF7C1
:103630000CFA3A48806D40F480703849886570BD56
:10364000374A11807047374A118070472DE9F0479B
:1036500081460C4615461E464FF0000AC4F5987484
:10366000A9B2502000F06CFE05F1170081B2512084
:1036700000F066FEA1B2522000F062FE04F10F00DD
:1036800081B2532000F05CFE002211464846FFF74D
:1036900013FA2248C06D40F480702049C86522208A
:1036A000FFF7B4F900F00CFED04616E00F270FE04C
:1036B00036F81A000121B940084020B9194800889D
:1036C00000F0DEFD03E01648008800F0D9FD7F1E03
:1036D000002FEDDAB61C08F10108B8F1180FE5DB90
:1036E00000F0E4FDBDE8F0872DE9F04107460D4606
:1036F00016461C46A4F12000C4B204EB4400DFF8D7
:1037000028C00CEB401305EB4500C20031013846E0
:10371000FFF79CFFBDE8F0811400001000C00920F5
:103720001600001018000010804300002DE9F04141
:1037300006460F4615461C463046FFF7E5F907E0FA
:1037400014F8013B2A466D1C39463046FFF7CCFF82
:1037500020780028F4D1BDE8F08170B504460D460C
:103760002046FFF7D1F970BD2DE9F05F82460D4686
:1037700016461C46DDE90AB8C5F5A070051BB1B2B6
:10378000502000F0DDFD06F1170081B2512000F05D
:10379000D7FDA9B2522000F0D3FD2819401E81B2F6
:1037A000532000F0CDFD08FB04F04FEA90280022E2
:1037B00011465046FFF780F9FA48C06D40F480701A
:1037C000F849C8652220FFF721F900F079FD4FF094
:1037D000000911E0671E0BE0474504D3F24800885A
:1037E00000F04EFD03E0F148008800F049FD7F1E27
:1037F000002FF1DA09F10109D945EBD300F056FDAC
:10380000BDE8F09F2DE9F05F0D4616461C46DDE948
:103810000A8B5F46C5F5A070051BB1B2502000F0C1
:103820008FFD06EB0800401E81B2512000F088FD9C
:10383000A9B2522000F084FD2819401E81B2532005
:1038400000F07EFDB1B2202000F07AFDA9B2212067
:1038500000F076FDD348C06D40F48070D149C86552
:103860002220FFF7D3F800F02BFD4FF0000A12E002
:10387000601E07EB40074FF0000905E037F802092A
:1038800000F0FEFC09F10109A145F7D3601C07EB2C
:1038900040070AF1010AC245EAD300F007FDBDE87E
:1038A000F09F2DE9F05F0C4616461D46DDE90A79CA
:1038B000C846C4F5A070441BB1B2502000F040FDD2
:1038C000F019401E81B2512000F03AFDA1B2522001
:1038D00000F036FD6019401E81B2532000F030FD2B
:1038E000B1B2202000F02CFDA1B2212000F028FD73
:1038F000AC48C06D40F48070AA49C8652220FFF72B
:1039000085F800F0DDFC07FB05F0401E08EB4008E1
:103910004FF0000B0CE04FF0000A05E038F8020908
:1039200000F0AEFC0AF1010AAA45F7D30BF1010B36
:10393000BB45F0D300F0BAFCBDE8F09F2DE9F0479D
:1039400080460E4614461D46DDE908793146502072
:1039500000F0F6FC2946512000F0F2FC21465220EE
:1039600000F0EEFC3946532000F0EAFC22463146D6
:103970004046FFF7A1F88B48C06D40F4807089493C
:10398000C8654046FFF7F4F800F09AFC381B401C6D
:10399000A91B491C00FB01FA02E0484600F070FC3C
:1039A0005FEA0A00AAF1010AF7D10021502000F0D5
:1039B000C7FCEF21512000F0C3FC0021522000F091
:1039C000BFFC40F23F11532000F0BAFCBDE8F08785
:1039D0002DE9FF4F85B0894692460020039083462B
:1039E0000898A0EB09051298A0EB0A06CDF80890FC
:1039F000CDF804A0002D01DD012705E00DB9002759
:103A000002E04FF0FF376D42002E02DD4FF001085B
:103A100006E016B94FF0000802E04FF0FF3876429A
:103A2000B54201DD2C4600E03446002004901EE043
:103A3000019882B2029881B20598FFF7C8F80398FE
:103A400028440390B3440398A04205DD0398001B6B
:103A50000390029838440290A34504DDABEB040BBD
:103A60000198404401900498401C80B20490611C6D
:103A700004988842DCDD09B0BDE8F08F2DE9F843F9
:103A800080460D4616461F46089C3B463246294650
:103A900040460096FFF79CFF2B463246294640469B
:103AA0000094FFF795FF3B46224629464046009486
:103AB000FFF78EFF3B463246394640460094FFF7FB
:103AC00087FFBDE8F8832DE9F04782460E4617468A
:103AD0009846002445460320A0EB480952E0381BD5
:103AE00082B2701B81B25046FFF771F8381B82B268
:103AF000701981B25046FFF76AF8781982B2301B0C
:103B000081B25046FFF763F8381B82B2701B81B256
:103B10005046FFF75CF8781B82B2301B81B25046EA
:103B2000FFF755F8381982B2701981B25046FFF785
:103B30004EF8781B82B2301981B25046FFF747F831
:103B4000781982B2301981B25046FFF740F838191F
:103B500082B2701B81B25046FFF739F8641CB9F18C
:103B6000000F03DAA000801D814404E0601B800088
:103B70000A3081446D1E781982B2301981B25046E4
:103B8000FFF725F8AC42AADDBDE8F0872DE9F05F2C
:103B900080468B461F46DDE90A5A4FF00009002493
:103BA0002BE0000000C009201800001016000010D3
:103BB000281B401EC2B20A214046FEF772FFB7FB27
:103BC000F0F00A21B0FBF1F201FB1206B9F1000F8F
:103BD0000AD1681EA04207DD26B920214046FFF722
:103BE00014F808E04FF0010906F13000C1B2404678
:103BF000FFF70BF800BF601CC4B2AC42D8DBBDE8D5
:103C0000F09F2DE9F05F80468B461D46DDE90B9A5B
:103C10000A9E002415E0301B401EC2B20A21404615
:103C2000FEF73FFFB5FBF0F00A21B0FBF1F201FB1C
:103C3000120707F13000C1B24046FEF7E6FF601CF4
:103C4000C4B2B442E7DBBDE8F09F2DE9F04107467E
:103C50000D4616461C46FE4806602FE0FD480560EE
:103C60001EE0FC480068401BF94A1268921BC2EB38
:103C7000021200EB0210801C34F810103846FFF7D7
:103C8000DFFCF448006840F23F12111AF048026865
:103C90003846FFF7B6FCEF480068401CED49086065
:103CA000EC480068F02804D22088EA490968884274
:103CB000D7D8E7480068401CE5490860E448006838
:103CC000B0F5A07F04D26088E14909688842C5D870
:103CD000BDE8F08170B506460D463046FEF714FF8C
:103CE000002211463046FEF7E7FEDB48C06D40F487
:103CF0008070D949C8652220FEF788FE00F0E0FAFE
:103D0000002405E0A11C35F8110000F0B9FA641C8C
:103D1000B4F5963FF6D300F0C9FA70BD2DE9FF5F08
:103D200091461F4600BFCD480078C0F1F000C4B2F4
:103D3000E01BC4B2002C06DBF02C04DCC848008871
:103D4000B0F5A07F08DDC64800881830C449088057
:103D50000020C2490870E6E72146502000F0F0FA42
:103D600004F10B01512000F0EBFABD48018852200C
:103D700000F0E6FABA480088173081B2532000F00C
:103D8000DFFAB748028821460098FEF795FE0098B2
:103D9000FEF7EEFE002543E000263DE009EB0500BE
:103DA0003044B04911F800A04FF000082FE00AF0AD
:103DB000010098B1032095FBF0F020441FFA80FB2E
:103DC000A74800884044082101FB060082B2A648AB
:103DD000038859460098FEF7ABFE12E0032095FBDE
:103DE000F0F020441FFA80FB9D48008840440821E1
:103DF00001FB060082B29D48038859460098FEF7F1
:103E000097FE4FEA6A0A08F1010000F0FF08B8F1D6
:103E1000080FCCDB701CC6B2032EBFDBE81CC5B29A
:103E200007EB4700A842B7DC0021502000F088FAD9
:103E3000EF21512000F084FA0021522000F080FA96
:103E400040F23F11532000F07BFA84480078384458
:103E50008249087008460078F02815DB8048008801
:103E600018307F49088000207C4908707C48008811
:103E7000B0F5A07F08DD00200870794908807B48F4
:103E800001880098FEF793FFBDE8FF9F2DE9F34FEF
:103E900081B00D469DE028780A2809D17048008835
:103EA00018306F49088000206C490870704908700C
:103EB00028787F2816DA28786E49FEF73FFD0446F9
:103EC0006D4830F8240086B26C4810F814702978D8
:103ED0003B4632460198FFF721FF6D1C00206449E4
:103EE000087076E0287804026D1C2878044304F0FA
:103EF0003F0BC4F3042000900098870147EA0B07AA
:103F00003C465C492046FEF719FD80465C4830F887
:103F1000280086B240F2276084420FD040F22F6022
:103F200084420BD0B4F5C66F08D0801C844205D003
:103F3000401C844202D0B4F5C96F0AD14C480078C5
:103F4000012805D115F8020C202801D0701C86B27A
:103F50000FE047480078012805D115F8020C202809
:103F600001D0701C86B26878202801D0B01C86B2BF
:103F700000BF40493046FEF7E1FC80463E4830F83D
:103F800028001FFA80F93D4810F818A053464A4609
:103F900021460198FFF7C2FE40F2276084420FD00D
:103FA00040F22F6084420BD0B4F5C66F08D0801C5D
:103FB000844205D0401C844202D0B4F5C96F03D1BD
:103FC00000202B49087002E00120294908706D1C6F
:103FD00000BF287800287FF45EAFBDE8FE8F1F4940
:103FE000097808311D4A117011460978F02907D166
:103FF0001B49098810311A4A11800021174A117093
:1040000070472DE9F04781460C46641C1D48007836
:10401000401C1C49087020787F2803DA2146484656
:10402000FFF7EFFF641E257812492846FEF786FC4D
:104030000646114830F8260087B2104810F816805E
:1040400043463A4629464846FFF768FE0D481BE0BE
:10405000240000102000001000C009201A000010E9
:104060001C0000103478000016000010180000102A
:1040700028000010C8BA0000B4AE0000B8B50000B7
:10408000F4BA00001E0000100078BDE8F08710B5FB
:10409000203AC0F00B80B1E81850203AA0E8185040
:1040A000B1E81850A0E81850BFF4F5AF5FEA027C01
:1040B00024BFB1E81850A0E8185044BF18C918C070
:1040C000BDE810405FEA827C24BF51F8043B40F811
:1040D000043B08BF7047D20728BF31F8023B48BFF6
:1040E00011F8012B28BF20F8023B48BF00F8012B34
:1040F00070474FF0000200B51346944696462039AB
:1041000022BFA0E80C50A0E80C50B1F12001BFF490
:10411000F7AF090728BFA0E80C5048BF0CC05DF8F6
:1041200004EB890028BF40F8042B08BF704748BF44
:1041300020F8022B11F0804F18BF00F8012B7047B8
:10414000704770477047754600F028F8AE46050086
:104150006946534620F00700854618B020B5FEF7A3
:1041600013F8BDE820404FF000064FF000074FF075
:1041700000084FF0000B21F00701AC46ACE8C00985
:10418000ACE8C009ACE8C009ACE8C0098D4670478E
:104190000446AFF300802046FDF7DFFF004870477C
:1041A0004C00001001491820ABBEFEE726000200BB
:1041B000704770B506460C46002504E0615D304648
:1041C00000F005F86D1C605D0028F7D170BD30B5BA
:1041D00004460D46207820B929462046FEF761FAAC
:1041E00016E02078012804D129462046FEF767FA18
:1041F0000EE02078022804D129462046FEF76DFA09
:1042000006E02078032803D129462046FEF773FAFA
:1042100030BDF8B504460E461546267094F90000E8
:10422000032801DD2046F8BD00BF6846FEF7F2FA1C
:104230000746C01707EB9070801060602901606826
:1042400090FBF1F0A06000BF207818B92046FEF77F
:104250006FF913E02078012803D12046FEF78AF990
:104260000CE02078022803D12046FEF7AAF905E0E9
:104270002078032802D12046FEF7C5F92046D2E770
:1042800010B504462046FEF797FB0748C06D40F482
:1042900080600549C865FDF767FF0348806D40F4FD
:1042A00080600149886510BD00C009200348806D09
:1042B00040F48070014988657047000000C0092003
:1042C0000348806D40F40070014988657047000024
:1042D00000C0092070B500231848806D40F40070BC
:1042E000164988650846806D40F4806088650846F8
:1042F000C06D40F40060C86500BF0846006820F447
:10430000FF0008600846006820F47F6008603220E3
:10431000FEF7C0FB09484069C0F3C734074840694D
:10432000C0F3071646EA042500BF2B460348806DFC
:1043300040F4006001498865184670BD00C009203E
:1043400070B505460C460948C06D40F480700749B9
:10435000C8652846FEF75AFB2046FEF776FB034861
:10436000806D40F480700149886570BD00C00920EF
:1043700010B504462046FEF7D7FD204610BD0000CC
:10438000000000000000000000000000000000002D
:10439000000000000000000000000000000000001D
:1043A000000000000000000000000000000000000D
:1043B00000000000000000000000000000000000FD
:1043C00000000000000000000000000000000000ED
:1043D00000000000000000000000000000000000DD
:1043E000000000008001000080010000800100004A
:1043F00080010000800100008001000080010000B9
:1044000080010000800100008001000080010000A8
:10441000800100008001000000000000000000009A
:10442000800100008001000000000000000000008A
:10443000000000000000000000000000000000007C
:104440000000000000000000CC000000CC000000D4
:10445000CC000000CC000000CC000000CC0000002C
:10446000000000000000000000000000000000004C
:10447000000000000000000000000000000000003C
:10448000000000000000000000000000000000002C
:10449000000000000000000000000000000000001C
:1044A000000000000000000000000000000000000C
:1044B0000000000000000000600C0000600C000024
:1044C000600C00003006000030060000FE1F0000F7
:1044D000FE1F00003006000038070000180300002F
:1044E000FE1F0000FE1F000018030000180300005C
:1044F0008C0100008C0100008C0100000000000015
:104500000000000080000000E0030000F80F000041
:104510009C0E00008C1C00008C1800008C00000019
:1045200098000000F8010000E0070000800E000085
:10453000801C00008C1800008C1800009C180000E3
:10454000B80C0000F00F0000E00300008000000045
:1045500080000000000000000000000000000000DB
:104560000000000000000000000000000E18000025
:104570001B0C0000110C00001106000011060000C9
:1045800011030000110300009B0100008E010000D8
:10459000C0380000C06C00006044000060440000AF
:1045A000304400003044000018440000186C000043
:1045B0000C380000000000000000000000000000B7
:1045C00000000000E0010000F003000038070000D8
:1045D000180600001806000030030000F00100007B
:1045E000F0000000F80000009C3100000E330000D5
:1045F000061E0000061C0000061C0000063F00000E
:10460000FC730000F021000000000000000000002A
:10461000000000000000000000000000000000009A
:1046200000000000000000000C0000000C00000072
:104630000C0000000C0000000C0000000C0000004A
:10464000000000000000000000000000000000006A
:10465000000000000000000000000000000000005A
:10466000000000000000000000000000000000004A
:10467000000000000000000000000000000000003A
:1046800000000000000200000003000080010000A4
:10469000C0000000C00000006000000060000000DA
:1046A000300000003000000030000000300000004A
:1046B000300000003000000030000000300000003A
:1046C0006000000060000000C0000000C0000000AA
:1046D0008001000000030000000200000000000054
:1046E000000000002000000060000000C00000008A
:1046F00080010000800100000003000000030000B2
:104700000006000000060000000600000006000091
:104710000006000000060000000600000006000081
:104720000003000000030000800100008001000081
:10473000C000000060000000200000000000000039
:104740000000000000000000000000000000000069
:104750000000000000000000C0000000C0000000D9
:10476000D8060000F8070000E00100003003000058
:1047700038070000000000000000000000000000FA
:104780000000000000000000000000000000000029
:104790000000000000000000000000000000000019
:1047A0000000000000000000000000000000000009
:1047B00000000000000000008001000080010000F7
:1047C000800100008001000080010000FC3F00002B
:1047D000FC3F00008001000080010000800100001B
:1047E00080010000800100000000000000000000C7
:1047F00000000000000000000000000000000000B9
:1048000000000000000000000000000000000000A8
:104810000000000000000000000000000000000098
:104820000000000000000000000000000000000088
:104830000000000000000000000000000000000078
:104840000000000080010000800100000001000065
:1048500000010000800000000000000000000000D7
:104860000000000000000000000000000000000048
:104870000000000000000000000000000000000038
:104880000000000000000000000000000000000028
:10489000E0070000E007000000000000000000004A
:1048A0000000000000000000000000000000000008
:1048B00000000000000000000000000000000000F8
:1048C00000000000000000000000000000000000E8
:1048D00000000000000000000000000000000000D8
:1048E00000000000000000000000000000000000C8
:1048F00000000000000000000000000000000000B8
:1049000000000000C0000000C00000000000000027
:104910000000000000000000000000000000000097
:1049200000000000000C0000000C00000006000069
:104930000006000000060000000300000003000065
:1049400000030000800300008001000080010000DF
:1049500080010000C0000000C0000000C000000096
:104960006000000060000000000000000000000087
:104970000000000000000000000000000000000037
:1049800000000000E0030000F0070000380E000007
:10499000180C00000C1800000C1800000C18000087
:1049A0000C1800000C1800000C1800000C18000077
:1049B0000C1800000C180000180C0000380E000045
:1049C000F0070000E003000000000000000000000D
:1049D00000000000000000000000000000000000D7
:1049E000000000000001000080010000C001000084
:1049F000F001000098010000880100008001000023
:104A000080010000800100008001000080010000A2
:104A10008001000080010000800100008001000092
:104A20008001000080010000000000000000000084
:104A30000000000000000000000000000000000076
:104A400000000000E0030000F80F0000180C000058
:104A50000C1800000C1800000018000000180000DE
:104A6000000C0000000600000003000080010000B0
:104A7000C0000000600000003000000018000000CE
:104A8000FC1F0000FC1F00000000000000000000F0
:104A90000000000000000000000000000000000016
:104AA00000000000E0010000F8070000180E000000
:104AB0000C0C00000C0C0000000C000000060000B4
:104AC000C0030000C0070000000C00000018000038
:104AD000001800000C1800000C180000180C000052
:104AE000F8070000E00300000000000000000000E4
:104AF00000000000000000000000000000000000B6
:104B000000000000000C0000000E0000000F00007C
:104B1000000F0000800D0000C00C0000600C0000C1
:104B2000600C0000300C0000180C00000C0C0000A1
:104B3000FC3F0000FC3F0000000C0000000C0000E7
:104B4000000C0000000C000000000000000000004D
:104B50000000000000000000000000000000000055
:104B600000000000F80F0000F80F0000180000001F
:104B7000180000000C000000EC030000FC0700001F
:104B80001C0E0000001C00000018000000180000AF
:104B9000001800000C1800001C0C0000180E00008B
:104BA000F8070000E0030000000000000000000023
:104BB00000000000000000000000000000000000F5
:104BC00000000000C0070000F00F0000381C0000CB
:104BD00018180000180000000C000000CC030000B2
:104BE000EC0F00003C0E00001C1C00000C18000024
:104BF0000C1800000C180000181C0000380E0000F3
:104C0000F0070000E00300000000000000000000CA
:104C10000000000000000000000000000000000094
:104C200000000000FC1F0000FC1F0000000C000042
:104C300000060000000600000003000080030000E2
:104C400080010000C0010000C0000000E000000082
:104C500060000000600000007000000030000000F4
:104C600030000000300000000000000000000000E4
:104C70000000000000000000000000000000000034
:104C800000000000E0030000F0070000380E000004
:104C9000180C0000180C0000180C0000380600006A
:104CA000F0070000F0070000180C00000C180000CE
:104CB0000C1800000C1800000C180000380C000044
:104CC000F80F0000E00300000000000000000000FA
:104CD00000000000000000000000000000000000D4
:104CE00000000000E0030000F0070000380E0000A4
:104CF0001C0C00000C1800000C1800000C18000020
:104D00001C1C0000381E0000F81B0000E019000009
:104D100000180000000C0000000C00001C0E000039
:104D2000F8070000F0010000000000000000000093
:104D30000000000000000000000000000000000073
:104D40000000000000000000000000000000000063
:104D50000000000000000000800100008001000051
:104D60000000000000000000000000000000000043
:104D70000000000000000000000000000000000033
:104D80008001000080010000000000000000000021
:104D90000000000000000000000000000000000013
:104DA0000000000000000000000000000000000003
:104DB00000000000000000008001000080010000F1
:104DC00000000000000000000000000000000000E3
:104DD00000000000000000000000000000000000D3
:104DE00080010000800100000001000000010000BF
:104DF0008000000000000000000000000000000033
:104E000000000000000000000000000000000000A2
:104E10000000000000000000000000000000000092
:104E200000100000001C0000800F0000E0030000E4
:104E3000F800000018000000F8000000E003000087
:104E4000800F0000001C00000010000000000000A7
:104E50000000000000000000000000000000000052
:104E60000000000000000000000000000000000042
:104E70000000000000000000000000000000000032
:104E8000F81F00000000000000000000000000000B
:104E9000F81F0000000000000000000000000000FB
:104EA0000000000000000000000000000000000002
:104EB00000000000000000000000000000000000F2
:104EC00000000000000000000000000000000000E2
:104ED00000000000000000000000000000000000D2
:104EE0000800000038000000F0010000C0070000CA
:104EF000001F000000180000001F0000C007000095
:104F0000F001000038000000080000000000000070
:104F10000000000000000000000000000000000091
:104F200000000000E0030000F80F0000180C000073
:104F30000C1800000C18000000180000000C000005
:104F4000000600000003000080010000C000000017
:104F5000C0000000C00000000000000000000000D1
:104F6000C0000000C00000000000000000000000C1
:104F70000000000000000000000000000000000031
:104F80000000000000000000E0070000181800000A
:104F900004200000C2290000224A00001144000041
:104FA00009440000094400000944000009220000EF
:104FB00011130000E20C0000024000000420000079
:104FC00018180000E00700000000000000000000CA
:104FD00000000000000000000000000000000000D1
:104FE000000000008003000080030000C0060000F5
:104FF000C0060000C0060000600C0000600C00004D
:10500000301800003018000030180000F83F000091
:10501000F83F00001C7000000C6000000C600000F5
:1050200006C0000006C000000000000000000000F4
:105030000000000000000000000000000000000070
:1050400000000000FC030000FC0F00000C0C00003E
:105050000C1800000C1800000C1800000C0C0000CC
:10506000FC070000FC0F00000C1800000C300000D2
:105070000C3000000C3000000C3000000C18000058
:10508000FC1F0000FC070000000000000000000002
:105090000000000000000000000000000000000010
:1050A00000000000C0070000F01F000038380000BA
:1050B0001C3000000C7000000660000006000000BC
:1050C00006000000060000000600000006000000C8
:1050D00006000000066000000C7000001C3000009C
:1050E000F01F0000E00700000000000000000000CA
:1050F00000000000000000000000000000000000B0
:1051000000000000FE030000FE0F0000060E00007D
:1051100006180000061800000630000006300000E7
:1051200006300000063000000630000006300000A7
:10513000063000000618000006180000060E0000E9
:10514000FE0F0000FE030000000000000000000051
:10515000000000000000000000000000000000004F
:1051600000000000FC3F0000FC3F00000C000000BD
:105170000C0000000C0000000C0000000C000000FF
:10518000FC1F0000FC1F00000C0000000C000000D1
:105190000C0000000C0000000C0000000C000000DF
:1051A000FC3F0000FC3F0000000000000000000089
:1051B00000000000000000000000000000000000EF
:1051C00000000000F83F0000F83F00001800000059
:1051D000180000001800000018000000180000006F
:1051E000F81F0000F81F0000180000001800000061
:1051F000180000001800000018000000180000004F
:10520000180000001800000000000000000000006E
:10521000000000000000000000000000000000008E
:1052200000000000E00F0000F83F00003C780000A4
:105230000E60000006E0000007C000000300000050
:105240000300000003FE000003FE000003C0000096
:1052500007C0000006C000000EC000003CF00000C7
:10526000F83F0000E00F0000000000000000000018
:10527000000000000000000000000000000000002E
:10528000000000000C3000000C3000000C3000006A
:105290000C3000000C3000000C3000000C3000001E
:1052A000FC3F0000FC3F00000C3000000C30000010
:1052B0000C3000000C3000000C3000000C300000FE
:1052C0000C3000000C300000000000000000000066
:1052D00000000000000000000000000000000000CE
:1052E000000000008001000080010000800100003B
:1052F00080010000800100008001000080010000AA
:105300008001000080010000800100008001000099
:105310008001000080010000800100008001000089
:10532000800100008001000000000000000000007B
:10533000000000000000000000000000000000006D
:10534000000000000006000000060000000600004B
:105350000006000000060000000600000006000035
:105360000006000000060000000600000006000025
:1053700000060000180600001806000038070000AC
:10538000F0030000E0010000000000000000000049
:10539000000000000000000000000000000000000D
:1053A000000000000630000006180000060C000097
:1053B000060600000603000086010000C60000008B
:1053C0006600000076000000DE0000008E01000094
:1053D0000603000006060000060C00000618000088
:1053E0000630000006600000000000000000000021
:1053F00000000000000000000000000000000000AD
:105400000000000018000000180000001800000054
:10541000180000001800000018000000180000002C
:10542000180000001800000018000000180000001C
:10543000180000001800000018000000180000000C
:10544000F81F0000F81F000000000000000000002E
:10545000000000000000000000000000000000004C
:10546000000000000EE000001EF000001EF0000032
:105470001EF0000036D8000036D8000036D80000F4
:1054800036D8000066CC000066CC000066CC000078
:10549000C6C60000C6C60000C6C60000C6C60000DC
:1054A00086C3000086C3000000000000000000006A
:1054B00000000000000000000000000000000000EC
:1054C000000000000C3000001C3000003C300000E8
:1054D0003C3000006C3000006C300000CC3000002C
:1054E000CC3000008C3100000C3300000C33000085
:1054F0000C3600000C3600000C3C00000C3C000098
:105500000C3800000C30000000000000000000001B
:10551000000000000000000000000000000000008B
:1055200000000000E0070000F81F00001C38000029
:105530000E7000000660000003C0000003C0000001
:1055400003C0000003C0000003C0000003C000004F
:1055500003C00000066000000E7000001C38000050
:10556000F81F0000E007000000000000000000003D
:10557000000000000000000000000000000000002B
:1055800000000000FC0F0000FC1F00000C380000B1
:105590000C3000000C3000000C3000000C3000001B
:1055A0000C180000FC1F0000FC0700000C000000AD
:1055B0000C0000000C0000000C0000000C000000BB
:1055C0000C0000000C0000000000000000000000C3
:1055D00000000000000000000000000000000000CB
:1055E00000000000E0070000F81F00001C38000069
:1055F0000E7000000660000003E0000003C0000021
:1056000003C0000003C0000003C0000003C000008E
:1056100007E00000066300000E3F00001C3C000095
:10562000F83F0000E0F7000000C0000000000000AC
:10563000000000000000000000000000000000006A
:1056400000000000FE0F0000FE1F000006380000F2
:10565000063000000630000006300000063800006A
:10566000FE1F0000FE070000060300000606000003
:10567000060C0000061800000618000006300000A6
:10568000063000000660000000000000000000007E
:10569000000000000000000000000000000000000A
:1056A00000000000E0030000F80F00001C0C0000E8
:1056B0000C1800000C1800000C0000001C0000007A
:1056C000F8030000E00F0000001E0000003800009A
:1056D00006300000063000000E3000001C1C0000E8
:1056E000F80F0000E00700000000000000000000CC
:1056F00000000000000000000000000000000000AA
:1057000000000000FE7F0000FE7F0000800100001E
:105710008001000080010000800100008001000085
:105720008001000080010000800100008001000075
:105730008001000080010000800100008001000065
:105740008001000080010000000000000000000057
:105750000000000000000000000000000000000049
:10576000000000000C3000000C3000000C30000085
:105770000C3000000C3000000C3000000C30000039
:105780000C3000000C3000000C3000000C30000029
:105790000C3000000C3000000C3000001818000025
:1057A000F81F0000E00700000000000000000000FB
:1057B00000000000000000000000000000000000E9
:1057C000000000000360000006300000063000000A
:1057D000063000000C1800000C1800000C18000027
:1057E000180C0000180C0000380E000030060000F5
:1057F0003006000070070000600300006003000036
:10580000C0010000C0010000000000000000000016
:105810000000000000000000000000000000000088
:105820000000000003600000C3610000C3610000CD
:10583000C361000066330000663300006633000079
:105840006633000066330000663300006C1B000006
:105850006C1B00006C1B00002C1A00003C1E00009A
:10586000380E0000380E00000000000000000000AC
:105870000000000000000000000000000000000028
:10588000000000000FE000000C7000001830000065
:1058900030180000700C0000600E0000C00700000F
:1058A0008003000080030000C0030000E006000049
:1058B000700C0000301C0000181800000C300000B4
:1058C0000E60000007E00000000000000000000083
:1058D00000000000000000000000000000000000C8
:1058E0000000000003C00000066000000C30000053
:1058F0001C38000038180000300C00006006000062
:10590000E0070000C00300008001000080010000EB
:105910008001000080010000800100008001000083
:105920008001000080010000000000000000000075
:105930000000000000000000000000000000000067
:1059400000000000FC7F0000FC7F00000060000001
:105950000030000000180000000C000000060000ED
:105960000003000080010000C00000006000000093
:1059700030000000180000000C00000006000000CD
:10598000FE7F0000FE7F000000000000000000001D
:105990000000000000000000000000000000000007
:1059A00000000000E0030000E003000060000000D1
:1059B0006000000060000000600000006000000067
:1059C0006000000060000000600000006000000057
:1059D0006000000060000000600000006000000047
:1059E0006000000060000000600000006000000037
:1059F00060000000E0030000E00300000000000081
:105A000000000000300000003000000060000000D6
:105A10006000000060000000C0000000C000000046
:105A2000C0000000C00100008001000080010000F3
:105A300080010000000300000003000000030000DC
:105A4000000600000006000000000000000000004A
:105A50000000000000000000000000000000000046
:105A600000000000E0030000E0030000000300006D
:105A7000000300000003000000030000000300001A
:105A8000000300000003000000030000000300000A
:105A900000030000000300000003000000030000FA
:105AA00000030000000300000003000000030000EA
:105AB00000030000E0030000E0030000000000001D
:105AC0000000000000000000C0010000C001000054
:105AD0006003000060030000600300003006000067
:105AE00030060000180C0000180C00000000000038
:105AF00000000000000000000000000000000000A6
:105B00000000000000000000000000000000000095
:105B10000000000000000000000000000000000085
:105B20000000000000000000000000000000000075
:105B30000000000000000000000000000000000065
:105B40000000000000000000000000000000000055
:105B50000000000000000000000000000000000045
:105B600000000000FFFF0000FFFF00000000000039
:105B70000000000000000000000000000000000025
:105B8000000000000C0000000C0000000C000000F1
:105B90000C0000000C0000000C00000000000000E1
:105BA00000000000000000000000000000000000F5
:105BB00000000000000000000000000000000000E5
:105BC00000000000000000000000000000000000D5
:105BD00000000000000000000000000000000000C5
:105BE00000000000000000000000000000000000B5
:105BF0000000000000000000F0030000F8070000B3
:105C00001C0C00000C0C0000000F0000F00F000046
:105C1000F80C00000C0C00000C0C00001C0F000025
:105C2000F80F0000F0180000000000000000000065
:105C30000000000000000000000000000000000064
:105C4000000000001800000018000000180000000C
:105C50001800000018000000D8030000F80F000032
:105C6000380C000018180000181800001818000060
:105C7000181800001818000018180000380C000050
:105C8000F80F0000D8030000000000000000000032
:105C90000000000000000000000000000000000004
:105CA00000000000000000000000000000000000F4
:105CB0000000000000000000C0030000F00700002A
:105CC000300E0000180C0000180000001800000042
:105CD0001800000018000000180C0000300E000032
:105CE000F0070000C00300000000000000000000FA
:105CF00000000000000000000000000000000000A4
:105D0000000000000018000000180000001800004B
:105D10000018000000180000C01B0000F01F000069
:105D2000301C000018180000181800001818000097
:105D3000181800001818000018180000301C000087
:105D4000F01F0000C01B0000000000000000000069
:105D50000000000000000000000000000000000043
:105D60000000000000000000000000000000000033
:105D70000000000000000000C0030000F00F000061
:105D8000300C000018180000F81F0000F81F000079
:105D9000180000001800000038180000301C000037
:105DA000F00F0000C007000000000000000000002D
:105DB00000000000000000000000000000000000E3
:105DC00000000000800F0000C00F0000C0000000B5
:105DD000C0000000C0000000F0070000F007000055
:105DE000C0000000C0000000C0000000C0000000B3
:105DF000C0000000C0000000C0000000C0000000A3
:105E0000C0000000C0000000000000000000000012
:105E10000000000000000000000000000000000082
:105E20000000000000000000000000000000000072
:105E30000000000000000000E00D0000F80F00006E
:105E4000180E00000C0C00000C0C00000C0C0000E4
:105E50000C0C00000C0C00000C0C0000180E0000D4
:105E6000F80F0000E00D0000000C00000C0C00001A
:105E70001C060000F8070000F00100000000000010
:105E800000000000180000001800000018000000CA
:105E90001800000018000000D8070000F80F0000EC
:105EA000381C00001818000018180000181800000E
:105EB0001818000018180000181800001818000022
:105EC0001818000018180000000000000000000072
:105ED00000000000000000000000000000000000C2
:105EE00000000000C0000000C00000000000000032
:105EF0000000000000000000C0000000C000000022
:105F0000C0000000C0000000C0000000C000000091
:105F1000C0000000C0000000C0000000C000000081
:105F2000C0000000C00000000000000000000000F1
:105F30000000000000000000000000000000000061
:105F400000000000C0000000C000000000000000D1
:105F50000000000000000000C0000000C0000000C1
:105F6000C0000000C0000000C0000000C000000031
:105F7000C0000000C0000000C0000000C000000021
:105F8000C0000000C0000000C0000000C000000011
:105F9000C0000000F80000007800000000000000D1
:105FA000000000000C0000000C0000000C000000CD
:105FB0000C0000000C0000000C0C00000C0600009F
:105FC0000C0300008C010000CC0000006C000000FD
:105FD000FC0000009C0100008C0300000C0300008A
:105FE0000C0600000C0C0000000000000000000087
:105FF00000000000000000000000000000000000A1
:1060000000000000C0000000C0000000C000000050
:10601000C0000000C0000000C0000000C000000080
:10602000C0000000C0000000C0000000C000000070
:10603000C0000000C0000000C0000000C000000060
:10604000C0000000C00000000000000000000000D0
:106050000000000000000000000000000000000040
:106060000000000000000000000000000000000030
:1060700000000000000000007C3C0000FF7E0000EB
:10608000C7E3000083C1000083C1000083C100009A
:1060900083C1000083C1000083C1000083C10000F0
:1060A00083C1000083C10000000000000000000068
:1060B00000000000000000000000000000000000E0
:1060C00000000000000000000000000000000000D0
:1060D000000000000000000098070000F80F00001A
:1060E000381C0000181800001818000018180000CC
:1060F00018180000181800001818000018180000E0
:10610000181800001818000000000000000000002F
:10611000000000000000000000000000000000007F
:10612000000000000000000000000000000000006F
:106130000000000000000000C0030000F00F00009D
:10614000300C000018180000181800001818000083
:10615000181800001818000018180000300C000073
:10616000F00F0000C003000000000000000000006D
:10617000000000000000000000000000000000001F
:10618000000000000000000000000000000000000F
:106190000000000000000000D8030000F80F00001D
:1061A000380C00001818000018180000181800001B
:1061B000181800001818000018180000380C00000B
:1061C000F80F0000D80300001800000018000000BD
:1061D0001800000018000000180000000000000077
:1061E00000000000000000000000000000000000AF
:1061F0000000000000000000C01B0000F01F0000B5
:10620000301C0000181800001818000018180000B2
:10621000181800001818000018180000301C0000A2
:10622000F01F0000C01B0000001800000018000054
:106230000018000000180000001800000000000016
:10624000000000000000000000000000000000004E
:106250000000000000000000B0070000F003000094
:10626000700000003000000030000000300000002E
:10627000300000003000000030000000300000005E
:1062800030000000300000000000000000000000AE
:1062900000000000000000000000000000000000FE
:1062A00000000000000000000000000000000000EE
:1062B0000000000000000000E0030000F003000008
:1062C000380E0000180C000038000000F003000039
:1062D000C0070000000C0000180C0000380E000081
:1062E000F0070000E00300000000000000000000D4
:1062F000000000000000000000000000000000009E
:10630000000000000000000080000000C00000004D
:10631000C0000000C0000000F0070000F00700000F
:10632000C0000000C0000000C0000000C00000006D
:10633000C0000000C0000000C0000000C00000005D
:10634000C0070000800700000000000000000000FF
:10635000000000000000000000000000000000003D
:10636000000000000000000000000000000000002D
:1063700000000000000000001818000018180000BD
:10638000181800001818000018180000181800004D
:10639000181800001818000018180000381C000019
:1063A000F01F0000E01900000000000000000000E5
:1063B00000000000000000000000000000000000DD
:1063C00000000000000000000000000000000000CD
:1063D00000000000000000000C180000180C000075
:1063E000180C0000180C00003006000030060000F9
:1063F000300600006003000060030000600300003E
:10640000C0010000C001000000000000000000000A
:10641000000000000000000000000000000000007C
:10642000000000000000000000000000000000006C
:106430000000000000000000C1410000C141000058
:10644000C3610000636300006363000063630000D6
:106450003636000036360000363600001C1C0000C0
:106460001C1C00001C1C00000000000000000000BC
:10647000000000000000000000000000000000001C
:10648000000000000000000000000000000000000C
:1064900000000000000000001C380000381C000054
:1064A000300C000060060000C0030000C0030000C4
:1064B000C0030000C003000060060000300C0000B4
:1064C000381C00001C380000000000000000000024
:1064D00000000000000000000000000000000000BC
:1064E00000000000000000000000000000000000AC
:1064F000000000000000000018300000301800000C
:106500003018000070180000600C0000600C0000E3
:10651000E00C0000C0060000C00600008003000080
:106520008003000080030000800100008001000063
:10653000C0010000F000000070000000000000003A
:10654000000000000000000000000000000000004B
:106550000000000000000000FC1F0000FC1F000005
:10656000000C000000060000000300008001000095
:10657000C0000000600000003000000018000000B3
:10658000FC1F0000FC1F00000000000000000000D5
:1065900000000000000000000000000000000000FB
:1065A000000000000003000080010000C0000000A7
:1065B000C0000000C0000000C0000000C0000000DB
:1065C000C00000006000000060000000300000001B
:1065D0006000000040000000C0000000C00000009B
:1065E000C0000000C0000000C0000000C0000000AB
:1065F0008001000000030000000000000000000017
:106600000000000080010000800100008001000007
:106610008001000080010000800100008001000076
:106620008001000080010000800100008001000066
:106630008001000080010000800100008001000056
:106640008001000080010000800100008001000046
:1066500080010000800100008001000000000000B7
:106660000000000060000000C0000000C001000049
:106670008001000080010000800100008001000016
:10668000800100000003000000030000000600007D
:1066900000030000000100008001000080010000F4
:1066A00080010000800100008001000080010000E6
:1066B000C0000000600000000000000000000000BA
:1066C00000000000000000000000000000000000CA
:1066D00000000000000000000000000000000000BA
:1066E000F0100000F81F0000080F0000000000007C
:1066F000000000000000000000000000000000009A
:106700000000000000000000000000000000000089
:106710000000000000000000000000000000000079
:106720000000000000000000000000000000000069
:106730000000000000000000000000000000000059
:106740000000000000000000000000000000000049
:106750000000000000000000000000000000000039
:106760000000000000000000000000000000000029
:106770000000000000000000000000000000000019
:106780000000000000000000000000000000000009
:1067900000000000C0030000300C000008100000E2
:1067A000042000000420000002400000024000001D
:1067B00002400000024000000240000004200000EF
:1067C0000420000008100000300C0000C00300008E
:1067D00000000000000000000000000000000000B9
:1067E00000000000000000000000000000000000A9
:1067F00000000000C0030000F00F0000F81F0000C0
:10680000FC3F0000FC3F0000FE7F0000FE7F000018
:10681000FE7F0000FE7F0000FE7F0000FC3F0000C6
:10682000FC3F0000F81F0000F00F0000C003000054
:106830000000000000000000000000000000000058
:106840000000000000000000000000000000000048
:10685000000000000000000000000000E007000051
:10686000F00F000018180000181800001818000099
:10687000181800001818000018180000F00F000089
:10688000E007000000000000000000000000000021
:1068900000000000000000000000000000000000F8
:1068A00000000000000000000000000000000000E8
:1068B000000000000000000000000000E0070000F1
:1068C000F00F0000F81F0000F81F0000F81F000084
:1068D000F81F0000F81F0000F81F0000F00F000074
:1068E000E0070000000000000000000000000000C1
:1068F0000000000000000000000000000000000098
:106900000000000000000000000000000000000087
:106910000000000000000000000000000000000077
:106920000000000000000000000000000000000067
:1069300080010000C003000060060000300C000071
:106940001818000018180000F81F0000F81F0000B9
:106950000000000000000000000000000000000037
:106960000000000000000000000000000000000027
:106970000000000000000000000000000000000017
:106980000000000000000000000000000000000007
:1069900080010000C0030000E0070000F00F0000CD
:1069A000F81F0000F81F0000F81F0000F81F00008B
:1069B00000000000000000000000000000000000D7
:1069C00000000000000000000000000000000000C7
:1069D000F81F0000F81F0000181800001818000029
:1069E000300C000060060000C003000080010000C1
:1069F0000000000000000000000000000000000097
:106A00000000000000000000000000000000000086
:106A10000000000000000000000000000000000076
:106A20000000000000000000000000000000000066
:106A3000F81F0000F81F0000F81F0000F81F0000FA
:106A4000F00F0000E0070000C0030000800100001C
:106A50000000000000000000000000000000000036
:106A60000000000000000000000000000000000026
:106A70000000000000000000000000000000000016
:106A80000000000000000000000000000000000006
:106A9000000000000000000000000000E001000015
:106AA000F0010000980100008C0100008601000048
:106AB000860100008C01000098010000F001000038
:106AC000E0010000000000000000000000000000E5
:106AD00000000000000000000000000000000000B6
:106AE00000000000000000000000000000000000A6
:106AF000000000000000000000000000E0010000B5
:106B0000F0010000F8010000FC010000FE0100009F
:106B1000FE010000FC010000F8010000F00100008F
:106B2000E001000000000000000000000000000084
:106B30000000000000000000000000000000000055
:106B40000000000000000000000000000000000045
:106B500000000000000000000000000080070000AE
:106B6000800F00008019000080310000806100006B
:106B7000806100008031000080190000800F00005B
:106B8000800700000000000000000000000000007E
:106B900000000000000000000000000000000000F5
:106BA00000000000000000000000000000000000E5
:106BB000000000000000000000000000800700004E
:106BC000800F0000801F0000803F0000807F0000D9
:106BD000807F0000803F0000801F0000800F0000C9
:106BE000800700000000000000000000000000001E
:106BF0000000000000000000000000000000000095
:106C000000000000C001000020020000200200007F
:106C100040010000300600000808000008080000DD
:106C20000808000008080000080800000808000024
:106C300008080000200200002002000020020000DE
:106C400020020000200200002002000020020000BC
:106C500020020000200200002002000000000000CE
:106C600000000000C0010000E0030000E00300009D
:106C7000C0010000F0070000D80D0000D80D000092
:106C8000D80D0000D80D0000D80D0000D80D000070
:106C9000D80D0000600300006003000060030000E6
:106CA0006003000060030000600300006003000058
:106CB00060030000600300006003000000000000AB
:106CC00000000000C00100002002000020020000BF
:106CD000400100003006000008080000080800001D
:106CE000080800000410000002200000022000003C
:106CF00040010000200200002002000010040000FB
:106D0000080800000808000004100000041000003B
:106D1000042000000440000000000000000000000B
:106D200000000000C0010000E0030000E0030000DC
:106D3000C0010000F0070000D80D0000D80D0000D1
:106D4000D80D0000CC190000C6310000C26100005F
:106D5000C001000060030000600300007006000036
:106D6000380C0000180C00000C1800000C18000073
:106D70000C3000000C60000000000000000000006B
:106D800000000000000000000000000000000404FB
:106D9000040404040004000000140A0A00000000B7
:106DA00000000000000014143F140A3F0A0A00000B
:106DB00000041E1505060C14150F04000000121522
:106DC0000D0A142C2A1200000000040A0A1E1515D0
:106DD000093600000002020100000000000000006F
:106DE0000020100808080808081020000002040805
:106DF000080808080804020000000004150E0E151B
:106E00000400000000000404041F04040400000047
:106E1000000000000000000000020201000000006D
:106E2000001F000000000000000000000000000043
:106E30000002000000100808080404020202010019
:106E400000000E1111111111110E000000000406B6
:106E500004040404040E000000000E1111080402D2
:106E6000011F000000000E11100C1010110E000088
:106E70000000080C0A0A091E0818000000001F0183
:106E8000010F1010110E000000000E09010F11116A
:106E9000110E000000001F0908040404040400008F
:106EA00000000E11110E1111110E000000000E1144
:106EB00011111E10120E000000000000040000005E
:106EC00000040000000000000004000000040400B2
:106ED0000020100804020408102000000000000038
:106EE0001F00001F0000000000020408102010080E
:106EF0000402000000000E11110804040004000048
:106F000000000E111915151D011E000000000404DB
:106F10000C0A0A1E1233000000000F12120E121289
:106F2000120F000000001E1101010101110E0000EE
:106F300000000F1212121212120F000000001F1296
:106F40000A0E0A02121F000000001F120A0E0A0297
:106F50000207000000001C1201013911120C000090
:106F600000003312121E12121233000000001F0420
:106F700004040404041F000000003E080808080878
:106F800008090700000037120A060A0A1237000033
:106F90000000070202020202223F000000001B1B49
:106FA0001B1B15151515000000003B1216161A1AAA
:106FB0001217000000000E1111111111110E000026
:106FC00000000F12120E02020207000000000E1154
:106FD00011111117190E180000000F12120E0A12CB
:106FE0001237000000001E1101060810110F0000EA
:106FF00000001F1504040404040E000000003312F6
:1070000012121212120C000000003312120A0A0CA3
:107010000404000000001515150E0A0A0A0A0000F3
:1070200000001B0A0A04040A0A1B000000001B0AD5
:107030000A040404040E000000001F0908040402EE
:10704000121F0000001C04040404040404041C00B7
:10705000000202020404080808100000000E0808DC
:107060000808080808080E0000040A0000000000D4
:107070000000000000000000000000000000003FD1
:1070800000040000000000000000000000000000FC
:10709000000C121C123C000000000302020E12122F
:1070A000120E000000000000001C1202021C000072
:1070B00000001810101C1212123C0000000000000A
:1070C000000C121E021C000000003804041E040400
:1070D000041E000000000000003C120C021E221CD6
:1070E00000000302020E121212370000000004001A
:1070F00000060404040E000000000800000C08084C
:107100000808080700000302023A0A0E12370000BE
:107110000000070404040404041F00000000000031
:10712000000F15151515000000000000000F1212C9
:107130001237000000000000000C1212120C0000B8
:1071400000000000000F1212120E020700000000E3
:10715000001C1212121C103800000000001B060256
:107160000207000000000000001E020C101E0000BC
:1071700000000004040E04040418000000000000D5
:10718000001B1212123C0000000000000037120A1F
:107190000C040000000000000015150E0A0A000093
:1071A00000000000001B0A040A1B00000000000091
:1071B0000037120A0C04040300000000001E08043B
:1071C000041E000000180808080408080808180031
:1071D0000808080808080808080808080006040441
:1071E000040804040404060002251800000000003E
:1071F000000000000000000000000000000000008F
:107200000000000000000008080808080808000046
:107210001818000000486C24120000000000000054
:10722000000000000000002424247F1212127F12AC
:10723000121200000000081C2A2A0A0C1828282A0A
:107240002A1C080800000022251515152A58545438
:10725000542200000000000C1212120A7625291197
:10726000916E00000006060403000000000000000C
:10727000000000000040201010080808080808104E
:107280001020400000020408081010101010100810
:10729000080402000000000008086B1C1C6B0808B2
:1072A0000000000000000000080808087F08080827
:1072B00008000000000000000000000000000000C6
:1072C000060604030000000000000000FE000000AD
:1072D00000000000000000000000000000000000AE
:1072E000060600000000804040202010100808041E
:1072F000040202000000001824424242424242427C
:1073000024180000000000080E08080808080808F3
:10731000083E00000000003C4242422020100804C9
:10732000427E00000000003C4242201820404042C3
:10733000221C0000000000203028242422227E206D
:10734000207800000000007E0202021A264040421F
:10735000221C0000000000382402021A2642424289
:10736000241800000000007E2222101008080808DF
:10737000080800000000003C424242241824424217
:10738000423C000000000018244242426458404041
:10739000241C00000000000000001818000000007D
:1073A00018180000000000000000000800000000A5
:1073B000000808040000004020100804020408101F
:1073C000204000000000000000007F0000007F005F
:1073D00000000000000000020408102040201008F7
:1073E000040200000000003C424246402010100011
:1073F000181800000000001C225A555555552D4202
:10740000221C00000000000808181414243C22422A
:1074100042E700000000001F2222221E22424242B8
:10742000221F00000000007C4242010101010142D4
:10743000221C00000000001F2242424242424242FF
:10744000221F00000000003F4212121E12120242D0
:10745000423F00000000003F4212121E12120202C0
:10746000020700000000003C2222010101712122DC
:10747000221C0000000000E7424242427E4242429B
:1074800042E700000000003E080808080808080855
:10749000083E00000000007C1010101010101010AA
:1074A0001010110F0000007722120A0E0A12122289
:1074B000227700000000000702020202020202021C
:1074C000427F000000000077363636362A2A2A2A04
:1074D0002A6B0000000000E346464A4A52525262BC
:1074E000624700000000001C2241414141414141EE
:1074F000221C00000000003F424242423E020202C3
:10750000020700000000001C2241414141414D534F
:10751000321C60000000003F4242423E1212222212
:1075200042C700000000007C424202041820404292
:10753000423E00000000007F4908080808080808CB
:10754000081C0000000000E7424242424242424220
:10755000423C0000000000E7424222242414141898
:10756000080800000000006B49494949555536227A
:1075700022220000000000E74224241818182424C6
:1075800042E70000000000772222141408080808CF
:10759000081C00000000007E212010100804044296
:1075A000423F000000780808080808080808080892
:1075B00008087800000002020404080808101020DF
:1075C00020204040001E101010101010101010103D
:1075D00010101E00003844000000000000000000F1
:1075E000000000000000000000000000000000009B
:1075F000000000FF0006080000000000000000007E
:1076000000000000000000000000003C42784442FE
:1076100042FC0000000000030202021A264242421D
:10762000261A000000000000000000384402020298
:10763000443800000000006040404078444242422C
:1076400064D80000000000000000003C427E0202FE
:10765000423C0000000000F08808087E0808080886
:10766000083E0000000000000000007C22221C02F6
:107670003C42423C000000030202023A46424242BF
:1076800042E700000000000C0C00000E080808088B
:10769000083E00000000003030000038202020208C
:1076A0002020221E0000000302020272120A16129B
:1076B000227700000000000E0808080808080808E3
:1076C000083E0000000000000000007F92929292AD
:1076D00092B70000000000000000003B464242421A
:1076E00042E70000000000000000003C424242422D
:1076F000423C0000000000000000001B2642424205
:10770000221E0207000000000000007844424242AE
:10771000447840E000000000000000774C040404BE
:10772000041F0000000000000000007C42023C40FA
:10773000423E0000000000000008083E080808085B
:107740000830000000000000000000634242424296
:1077500062DC000000000000000000E74224241466
:107760000808000000000000000000EB49495555E2
:1077700022220000000000000000007624181818E3
:10778000246E000000000000000000E742242414E2
:1077900018080807000000000000007E22100808FA
:1077A000447E000000C02020202020102020202027
:1077B0002020C00010101010101010101010101009
:1077C000101010100006080808080810080808081B
:1077D000080806000C32C200000000000000000093
:1077E0000000000000000000182040408080463863
:1077F00000000000000000181818181818181818B1
:107800001818180000000000000C0C2020203F1F5A
:1078100000000000000000000018181818181818C0
:10782000FF0000000000000000000018242424F8DD
:1078300020301C00000000000000000000000000DC
:10784000000000000000E08300E09F00E0830000F3
:1078500000003E00003E00000000003E00003E0030
:1078600000000000000000000000000C0060EC00C0
:1078700060FF00F01F00FE0C006EEC0060FF00F0E7
:107880001F00FE0C006E0C0060000000000078304D
:1078900000FC7000CEE10086C100FFFF0306C100BE
:1078A0000EE3001C7F00183E0000000000000000F6
:1078B0000000408001007000000E00C001006080E8
:1078C00000008000000000000000003C00007E007E
:1078D0003CE300FEC100C6C100C6C7007E6E003C8E
:1078E000780000FE00004E000000000000000000D4
:1078F000003E00003E00000000000000000000000C
:107900000000000000000000000000000000000077
:107910003F00C0C000200001000000000000000087
:1079200000300003C0C000003F0000000000000065
:10793000000000000800004900006A0000240080E8
:10794000E300000400002A0000CB00004800000013
:107950000000000000000000100000100000FC000B
:1079600000100000100000000000000000C0030034
:1079700000000000000010000010000010000010C7
:1079800000001000001000000000000000000000D7
:1079900000C00000000000800100E000001C00802A
:1079A0000300600000000000000000000000000074
:1079B00000000000000000000000000000000000C7
:1079C000000000000000000000000000400000C0B7
:1079D000030000FE000000000000000000000000A6
:1079E00000C0000080070080FF000001008001004F
:1079F000600000000000000000000000C0000080E7
:107A0000070000FF00800100C000000001008001AD
:107A100000600000000000C00000800700C0FF0000
:107A20002002002002000001000000000000000011
:107A30000000007800008600808100C04000808344
:107A400000008600007800000000000000008300B5
:107A5000806600403400401C00400C000004000020
:107A60000600000000C00000800100000600007851
:107A70000000F800000E00800300C00000000000BD
:107A800000000000C000006000001800800700C077
:107A90000700001C0000700000C000000000000093
:107AA00000000000800300600600200400C01F00EA
:107AB0000060000040000000000000000000000026
:107AC0000000008800000000000000000000C0C0AE
:107AD00004C0C0030000000000000000000000001F
